:100000000C9461000C9473000C9473000C947300B6
:100010000C9473000C9473000C9473000C94730094
:100020000C9473000C9473000C9473000C94730084
:100030000C9473000C9473000C9473000C94730074
:100040000C9491010C9473000C9473000C94730045
:100050000C9473000C9473000C9473000C94730054
:100060000C9473000C94730000000000240027001F
:100070002A0000000000250028002B0000000000DE
:1000800023002600290004040404040404040202DA
:100090000202020203030303030301020408102007
:1000A0004080010204081020010204081020000012
:1000B0000008000201000003040700000000000027
:1000C000000011241FBECFEFD8E0DEBFCDBF21E07E
:1000D000A0E0B1E001C01D92AD30B207E1F70E948F
:1000E000DB010C947D040C940000833081F028F433
:1000F000813099F08230A1F008958730A9F08830DE
:10010000B9F08430D1F4809180008F7D03C080915C
:1001100080008F7780938000089584B58F7702C028
:1001200084B58F7D84BD08958091B0008F7703C022
:100130008091B0008F7D8093B0000895CF93DF93BE
:10014000282F30E0F901E255FF4F8491F901E6567E
:10015000FF4FD491F901EA57FF4FC491CC2391F09E
:1001600081110E947500EC2FF0E0EE0FFF1FE458A4
:10017000FF4FA591B491EC91ED2381E090E021F443
:1001800080E002C080E090E0DF91CF9108951F935E
:10019000CF93DF93282F30E0F901E255FF4F849190
:1001A000F901E656FF4FD491F901EA57FF4FC49188
:1001B000CC23C1F0162F81110E947500EC2FF0E0C6
:1001C000EE0FFF1FEE58FF4FA591B4919FB7F89423
:1001D000111104C08C91D095D82302C0EC91DE2B74
:1001E000DC939FBFDF91CF911F910895CF93DF9351
:1001F00090E0FC01E656FF4F2491FC01EA57FF4FC7
:100200008491882361F190E0880F991FFC01E859DF
:10021000FF4FC591D491FC01EE58FF4FA591B491C9
:10022000611109C09FB7F894888120958223888343
:10023000EC912E230BC0623061F49FB7F894888153
:10024000322F309583238883EC912E2B2C939FBFE4
:1002500006C08FB7F894E8812E2B28838FBFDF91DB
:10026000CF9108953FB7F8948091090190910A01C8
:10027000A0910B01B0910C0126B5A89B05C02F3FA2
:1002800019F00196A11DB11D3FBFBA2FA92F982FBC
:100290008827820F911DA11DB11DBC01CD0142E037
:1002A000660F771F881F991F4A95D1F708958F927F
:1002B0009F92AF92BF92CF92DF92EF92FF926B012B
:1002C0007C010E9432014B015C01C114D104E104A4
:1002D000F104F1F00E943201DC01CB018819990987
:1002E000AA09BB09883E9340A105B10570F321E03E
:1002F000C21AD108E108F10888EE880E83E0981E42
:10030000A11CB11CC114D104E104F10419F7DDCF23
:10031000FF90EF90DF90CF90BF90AF909F908F9025
:1003200008951F920F920FB60F9211242F933F93AF
:100330008F939F93AF93BF93809105019091060196
:10034000A0910701B09108013091040123E0230F2F
:100350002D3720F40196A11DB11D05C026E8230FFD
:100360000296A11DB11D2093040180930501909375
:100370000601A0930701B0930801809109019091B3
:100380000A01A0910B01B0910C010196A11DB11DB4
:100390008093090190930A01A0930B01B0930C0183
:1003A000BF91AF919F918F913F912F910F900FBE71
:1003B0000F901F901895789484B5826084BD84B5A1
:1003C000816084BD85B5826085BD85B5816085BD50
:1003D00080916E00816080936E0010928100809108
:1003E0008100826080938100809181008160809390
:1003F0008100809180008160809380008091B100B5
:1004000084608093B1008091B00081608093B000DF
:1004100080917A00846080937A0080917A00826073
:1004200080937A0080917A00816080937A00809135
:100430007A00806880937A001092C10060E082E0C8
:100440000E94F60060E083E00E94F60060E084E035
:100450000E94F60060E085E00E94F60060E086E021
:100460000E94F60060E087E00E94F60060E088E00D
:100470000E94F60060E089E00E94F60060E08AE0F9
:100480000E94F60060E08BE00E94F60061E08EE0E2
:100490000E94F60061E08EE00E94C70061E08FE0FC
:1004A0000E94F60061E08FE00E94C70061E080E1F9
:1004B0000E94F60061E080E10E94C70061E081E1F6
:1004C0000E94F60061E081E10E94C70061E082E1E4
:1004D0000E94F60061E082E10E94C70061E083E1D2
:1004E0000E94F60061E083E10E94C70061E08CE0B9
:1004F0000E94F60060E08CE00E94C70061E08DE0A1
:100500000E94F60061E08DE00E94C7001092030196
:10051000109202011092010110920001C0E0D0E09F
:1005200082E00E949E00892B09F074C061E08CE09B
:100530000E94C70083E00E949E00019759F48BE05F
:100540000E949E00019731F48EE00E949E00019768
:1005500009F4E2C084E00E949E00019731F481E139
:100560000E949E00892B69F406C08AE00E949E00CA
:10057000019739F4F4CF82E10E949E00019709F4BB
:10058000F2C08BE00E949E00892B81F48DE00E94D6
:100590009E00019759F482E10E949E00892B31F45C
:1005A00081E10E949E00019709F402C18BE00E9444
:1005B0009E00019781F48AE00E949E00892B59F4E5
:1005C00082E10E949E00892B31F481E10E949E000D
:1005D000019709F4FEC08BE00E949E000197D1F4C0
:1005E0008AE00E949E00892BA9F483E00E949E006D
:1005F000892B81F484E00E949E00892B59F481E1CB
:100600000E949E00019731F482E10E949E000197B2
:1006100009F402C182E00E949E00019709F076C0B1
:1006200060E08CE00E94C70085E00E949E0081305F
:10063000910539F42091020130910301232B09F433
:1006400008C185E00E949E00892B39F48091020147
:1006500090910301019709F405C186E00E949E0074
:100660008130910539F42091000130910101232B53
:1006700009F40FC186E00E949E00892B39F4809115
:10068000000190910101019709F40CC187E00E94DB
:100690009E00019721F460E080E10E94C70087E09E
:1006A0000E949E00892B21F461E080E10E94C70036
:1006B00088E00E949E00019731F48AE00E949E002B
:1006C000892B09F406C188E00E949E00892B09F459
:1006D00005C18AE00E949E00019709F4FFC089E0ED
:1006E0000E949E00019731F48BE00E949E00892BAE
:1006F00009F4F9C089E00E949E00892B09F4F8C032
:100700008BE00E949E00019709F4F2C0209709F443
:1007100007CF0E94000004CF60E08EE00E94C70077
:1007200068EE73E080E090E00E94570160E08FE0A7
:100730000E94C70068EE73E080E090E00E945701DD
:1007400060E080E10E94C70068EE73E080E090E026
:100750000E94570160E081E10E94C70061E082E1F0
:100760000E94C700F7CE61E081E10E94C70061E00E
:1007700080E10E94C70061E08FE00E94C70060E056
:100780008DE00E94C70068EE73E080E090E00E9478
:10079000570161E08DE00E94C70060E082E10E94A5
:1007A000C70060ED77E080E090E00E945701E9CE5D
:1007B00061E081E10E94C70061E080E10E94C70022
:1007C00061E08FE00E94C70060E082E10E94C70004
:1007D000EDCE61E082E10E94C70061E081E10E940C
:1007E000C70061E08FE00E94C70061E080E10E94E5
:1007F000C70061E08EE00E94C70060E083E10E94D4
:10080000C70068EE73E080E090E00E94570161E06D
:1008100083E10E94C700DFCE61E082E10E94C70051
:1008200061E081E10E94C70061E08FE00E94C700A3
:1008300061E080E10E94C70061E08EE00E94C70095
:1008400061E083E10E94C70061E08DE00E94C70083
:10085000E1CE909303018093020160E08EE00E945C
:10086000C700EFCE109203011092020161E08EE00A
:100870000E94C70060E083E10E94C70068EE73E059
:1008800080E090E00E94570161E083E10E94C70090
:10089000E4CE909301018093000160E08FE00E941C
:1008A000C700E8CE109201011092000161E08FE0D4
:1008B0000E94C70060E08DE00E94C70068EE73E010
:1008C00080E090E00E94570161E08DE00E94C70047
:1008D000DDCE60E081E10E94C700F5CE61E081E1FC
:1008E0000E94C700FCCE60E082E10E94C70002CFF8
:0E08F00061E082E10E94C70009CFF894FFCFBB
:00000001FF
